{
  "contractName": "ContractLG",
  "abi": [
    {
      "inputs": [],
      "payable": false,
      "stateMutability": "nonpayable",
      "type": "constructor"
    },
    {
      "constant": true,
      "inputs": [],
      "name": "viewStatus",
      "outputs": [
        {
          "name": "",
          "type": "string"
        }
      ],
      "payable": false,
      "stateMutability": "view",
      "type": "function"
    },
    {
      "constant": true,
      "inputs": [],
      "name": "viewTitle",
      "outputs": [
        {
          "name": "",
          "type": "string"
        }
      ],
      "payable": false,
      "stateMutability": "view",
      "type": "function"
    },
    {
      "constant": true,
      "inputs": [],
      "name": "viewValidity",
      "outputs": [
        {
          "name": "",
          "type": "string"
        },
        {
          "name": "",
          "type": "string"
        },
        {
          "name": "",
          "type": "string"
        }
      ],
      "payable": false,
      "stateMutability": "view",
      "type": "function"
    },
    {
      "constant": true,
      "inputs": [],
      "name": "viewEYAddress",
      "outputs": [
        {
          "name": "",
          "type": "string"
        }
      ],
      "payable": false,
      "stateMutability": "view",
      "type": "function"
    },
    {
      "constant": true,
      "inputs": [],
      "name": "viewPartyAddress",
      "outputs": [
        {
          "name": "",
          "type": "string"
        }
      ],
      "payable": false,
      "stateMutability": "view",
      "type": "function"
    },
    {
      "constant": true,
      "inputs": [],
      "name": "viewDescription",
      "outputs": [
        {
          "name": "",
          "type": "string"
        }
      ],
      "payable": false,
      "stateMutability": "view",
      "type": "function"
    },
    {
      "constant": false,
      "inputs": [
        {
          "name": "pstatus",
          "type": "string"
        }
      ],
      "name": "setStatus",
      "outputs": [],
      "payable": false,
      "stateMutability": "nonpayable",
      "type": "function"
    },
    {
      "constant": false,
      "inputs": [
        {
          "name": "ptitile",
          "type": "string"
        }
      ],
      "name": "setTitle",
      "outputs": [],
      "payable": false,
      "stateMutability": "nonpayable",
      "type": "function"
    },
    {
      "constant": false,
      "inputs": [
        {
          "name": "pdate",
          "type": "string"
        },
        {
          "name": "ptenure",
          "type": "string"
        },
        {
          "name": "pwarranty",
          "type": "string"
        }
      ],
      "name": "setValidity",
      "outputs": [],
      "payable": false,
      "stateMutability": "nonpayable",
      "type": "function"
    },
    {
      "constant": false,
      "inputs": [
        {
          "name": "peyaddress",
          "type": "string"
        },
        {
          "name": "ppartyaddress",
          "type": "string"
        }
      ],
      "name": "setAddress",
      "outputs": [],
      "payable": false,
      "stateMutability": "nonpayable",
      "type": "function"
    },
    {
      "constant": false,
      "inputs": [
        {
          "name": "pdescription",
          "type": "string"
        }
      ],
      "name": "setDescription",
      "outputs": [],
      "payable": false,
      "stateMutability": "nonpayable",
      "type": "function"
    }
  ],
  "bytecode": "0x606060405234156200001057600080fd5b606060405190810160405280603781526020017f436f6e747261637420666f72204c616e64696e6720476561727320666f72204281526020017f37373720466c6565742077697468696e20457469686164000000000000000000815250600090805190602001906200008492919062000348565b506040805190810160405280600981526020017f494e49544941544544000000000000000000000000000000000000000000000081525060019080519060200190620000d292919062000348565b506040805190810160405280600a81526020017f44442d4d4d2d3230595900000000000000000000000000000000000000000000815250600290805190602001906200012092919062000348565b506040805190810160405280600881526020017f3130207965617273000000000000000000000000000000000000000000000000815250600390805190602001906200016e92919062000348565b506040805190810160405280600781526020017f352079656172730000000000000000000000000000000000000000000000000081525060049080519060200190620001bc92919062000348565b50608060405190810160405280604181526020017f457469686164204169727761797320502e4a2e532e432e2c504f42203335353681526020017f362c4162752044686162692c556e69746564204172616220456d69726174657381526020017f2e00000000000000000000000000000000000000000000000000000000000000815250600590805190602001906200025792919062000348565b50606060405190810160405280603281526020017f537461722047656172732c204765617273205374726565742c20502e4f20426f81526020017f78203136323733382c204d616368696e6573000000000000000000000000000081525060069080519060200190620002cc92919062000348565b50606060405190810160405280602981526020017f54686973206973207468652066697273742076657273696f6e206f662074686581526020017f20636f6e74726163740000000000000000000000000000000000000000000000815250600790805190602001906200034192919062000348565b50620003f7565b828054600181600116156101000203166002900490600052602060002090601f016020900481019282601f106200038b57805160ff1916838001178555620003bc565b82800160010185558215620003bc579182015b82811115620003bb5782518255916020019190600101906200039e565b5b509050620003cb9190620003cf565b5090565b620003f491905b80821115620003f0576000816000905550600101620003d6565b5090565b90565b610e6e80620004076000396000f3006060604052600436106100af576000357c0100000000000000000000000000000000000000000000000000000000900463ffffffff16806335ce18d6146100b457806348ec17ed146101425780635c932d12146101d0578063688351141461025e57806372910be0146102ec5780637d2211d61461034957806390c3f38f146103a6578063a22dee0414610403578063ac60a269146104a3578063c826e27514610531578063e51f7e2d14610614575b600080fd5b34156100bf57600080fd5b6100c761077a565b6040518080602001828103825283818151815260200191508051906020019080838360005b838110156101075780820151818401526020810190506100ec565b50505050905090810190601f1680156101345780820380516001836020036101000a031916815260200191505b509250505060405180910390f35b341561014d57600080fd5b610155610822565b6040518080602001828103825283818151815260200191508051906020019080838360005b8381101561019557808201518184015260208101905061017a565b50505050905090810190601f1680156101c25780820380516001836020036101000a031916815260200191505b509250505060405180910390f35b34156101db57600080fd5b6101e36108ca565b6040518080602001828103825283818151815260200191508051906020019080838360005b83811015610223578082015181840152602081019050610208565b50505050905090810190601f1680156102505780820380516001836020036101000a031916815260200191505b509250505060405180910390f35b341561026957600080fd5b610271610972565b6040518080602001828103825283818151815260200191508051906020019080838360005b838110156102b1578082015181840152602081019050610296565b50505050905090810190601f1680156102de5780820380516001836020036101000a031916815260200191505b509250505060405180910390f35b34156102f757600080fd5b610347600480803590602001908201803590602001908080601f01602080910402602001604051908101604052809392919081815260200183838082843782019150505050505091905050610a1a565b005b341561035457600080fd5b6103a4600480803590602001908201803590602001908080601f01602080910402602001604051908101604052809392919081815260200183838082843782019150505050505091905050610a34565b005b34156103b157600080fd5b610401600480803590602001908201803590602001908080601f01602080910402602001604051908101604052809392919081815260200183838082843782019150505050505091905050610a4e565b005b341561040e57600080fd5b6104a1600480803590602001908201803590602001908080601f0160208091040260200160405190810160405280939291908181526020018383808284378201915050505050509190803590602001908201803590602001908080601f01602080910402602001604051908101604052809392919081815260200183838082843782019150505050505091905050610a68565b005b34156104ae57600080fd5b6104b6610a9a565b6040518080602001828103825283818151815260200191508051906020019080838360005b838110156104f65780820151818401526020810190506104db565b50505050905090810190601f1680156105235780820380516001836020036101000a031916815260200191505b509250505060405180910390f35b341561053c57600080fd5b610612600480803590602001908201803590602001908080601f0160208091040260200160405190810160405280939291908181526020018383808284378201915050505050509190803590602001908201803590602001908080601f0160208091040260200160405190810160405280939291908181526020018383808284378201915050505050509190803590602001908201803590602001908080601f01602080910402602001604051908101604052809392919081815260200183838082843782019150505050505091905050610b42565b005b341561061f57600080fd5b610627610b8c565b60405180806020018060200180602001848103845287818151815260200191508051906020019080838360005b8381101561066f578082015181840152602081019050610654565b50505050905090810190601f16801561069c5780820380516001836020036101000a031916815260200191505b50848103835286818151815260200191508051906020019080838360005b838110156106d55780820151818401526020810190506106ba565b50505050905090810190601f1680156107025780820380516001836020036101000a031916815260200191505b50848103825285818151815260200191508051906020019080838360005b8381101561073b578082015181840152602081019050610720565b50505050905090810190601f1680156107685780820380516001836020036101000a031916815260200191505b50965050505050505060405180910390f35b610782610d89565b60058054600181600116156101000203166002900480601f0160208091040260200160405190810160405280929190818152602001828054600181600116156101000203166002900480156108185780601f106107ed57610100808354040283529160200191610818565b820191906000526020600020905b8154815290600101906020018083116107fb57829003601f168201915b5050505050905090565b61082a610d89565b60068054600181600116156101000203166002900480601f0160208091040260200160405190810160405280929190818152602001828054600181600116156101000203166002900480156108c05780601f10610895576101008083540402835291602001916108c0565b820191906000526020600020905b8154815290600101906020018083116108a357829003601f168201915b5050505050905090565b6108d2610d89565b60008054600181600116156101000203166002900480601f0160208091040260200160405190810160405280929190818152602001828054600181600116156101000203166002900480156109685780601f1061093d57610100808354040283529160200191610968565b820191906000526020600020905b81548152906001019060200180831161094b57829003601f168201915b5050505050905090565b61097a610d89565b60078054600181600116156101000203166002900480601f016020809104026020016040519081016040528092919081815260200182805460018160011615610100020316600290048015610a105780601f106109e557610100808354040283529160200191610a10565b820191906000526020600020905b8154815290600101906020018083116109f357829003601f168201915b5050505050905090565b8060009080519060200190610a30929190610d9d565b5050565b8060019080519060200190610a4a929190610d9d565b5050565b8060079080519060200190610a64929190610d9d565b5050565b8160059080519060200190610a7e929190610d9d565b508060069080519060200190610a95929190610d9d565b505050565b610aa2610d89565b60018054600181600116156101000203166002900480601f016020809104026020016040519081016040528092919081815260200182805460018160011615610100020316600290048015610b385780601f10610b0d57610100808354040283529160200191610b38565b820191906000526020600020905b815481529060010190602001808311610b1b57829003601f168201915b5050505050905090565b8260029080519060200190610b58929190610d9d565b508160039080519060200190610b6f929190610d9d565b508060049080519060200190610b86929190610d9d565b50505050565b610b94610d89565b610b9c610d89565b610ba4610d89565b600260036004828054600181600116156101000203166002900480601f016020809104026020016040519081016040528092919081815260200182805460018160011615610100020316600290048015610c3f5780601f10610c1457610100808354040283529160200191610c3f565b820191906000526020600020905b815481529060010190602001808311610c2257829003601f168201915b50505050509250818054600181600116156101000203166002900480601f016020809104026020016040519081016040528092919081815260200182805460018160011615610100020316600290048015610cdb5780601f10610cb057610100808354040283529160200191610cdb565b820191906000526020600020905b815481529060010190602001808311610cbe57829003601f168201915b50505050509150808054600181600116156101000203166002900480601f016020809104026020016040519081016040528092919081815260200182805460018160011615610100020316600290048015610d775780601f10610d4c57610100808354040283529160200191610d77565b820191906000526020600020905b815481529060010190602001808311610d5a57829003601f168201915b50505050509050925092509250909192565b602060405190810160405280600081525090565b828054600181600116156101000203166002900490600052602060002090601f016020900481019282601f10610dde57805160ff1916838001178555610e0c565b82800160010185558215610e0c579182015b82811115610e0b578251825591602001919060010190610df0565b5b509050610e199190610e1d565b5090565b610e3f91905b80821115610e3b576000816000905550600101610e23565b5090565b905600a165627a7a72305820f0bc11aa2fbbb755afbe580633b4ecc56b59210f59553a5dfd0cf267211fd31f0029",
  "source": "pragma solidity ^0.4.18;\n\n//import \"./concat.sol\";\n\ncontract ContractLG {\n    // title & status\n    string title;\n    string status;   // INITIATED, IN-RFP, IN-NEGOTIATION, SIGNED, AMENDMENT1, AMENDMENT2\n    // contract validity\n    string commencementDate;\n    string tenure;\n    string warranty;\n    //address\n    string eyAddress;\n    string partyAddress;\n    // desc\n    string contractDescription;\n\n    // constructor\n    //function ContractLG(string _title, string _status, string _commdate, string _tenure, string _warranty, string _eyaddress, string _partyaddress, string _contdesc) public {\n    function ContractLG() public {\n        title = \"Contract for Landing Gears for B777 Fleet within Etihad\";\n        //title = _title;\n        status = \"INITIATED\";\n        //status = _status;\n        commencementDate = \"DD-MM-20YY\";\n        //commencementDate = _commdate;\n        tenure = \"10 years\";\n        //tenure = _tenure;\n        warranty = \"5 years\";\n        //warranty = _warranty;\n        eyAddress = \"Etihad Airways P.J.S.C.,POB 35566,Abu Dhabi,United Arab Emirates.\";\n        //eyAddress = _eyaddress;\n        partyAddress = \"Star Gears, Gears Street, P.O Box 162738, Machines\";\n        //partyAddress = _partyaddress;\n        contractDescription = \"This is the first version of the contract\";\n        //contractDescription = _contdesc;\n    }\n\n    // getter functions\n    function viewStatus() public view returns (string) {\n        return status;\n    }\n    function viewTitle() public view returns (string) {\n        return title;\n    }\n    function viewValidity() public view returns (string, string, string) {\n        return (commencementDate, tenure, warranty);\n    }\n    function viewEYAddress() public view returns (string) {\n        return eyAddress;\n    }\n    function viewPartyAddress() public view returns (string) {\n        return partyAddress;\n    }\n    function viewDescription() public view returns (string) {\n        return contractDescription;\n    }\n\n    // setter functions\n    function setStatus(string pstatus) public {\n        status = pstatus;\n    }\n    function setTitle(string ptitile) public {\n        title = ptitile;\n    }\n    function setValidity(string pdate, string ptenure, string pwarranty) public {\n        commencementDate = pdate;\n        tenure = ptenure;\n        warranty = pwarranty;\n    }\n    function setAddress(string peyaddress, string ppartyaddress) public {\n        eyAddress = peyaddress;\n        partyAddress = ppartyaddress;\n    }\n    function setDescription(string pdescription) public {\n        contractDescription = pdescription;\n    }\n}",
  "sourcePath": "/Users/subir/truffle/lgcl/lgcl/contracts/ContractLG.sol",
  "compiler": {
    "name": "solc",
    "version": "0.4.19+commit.c4cbbb05.Emscripten.clang"
  },
  "schemaVersion": "2.0.0",
  "updatedAt": "2018-04-06T11:23:43.199Z"
}